:020000040000fa
:080000000002040000000000f2
:020000040000fa
:100400006f9a20000e7f24000e018800000000007b
:100410000c000700c0972000010020001f0007000b
:10042000000020000000e000020032000000020096
:1004300000000000b0020200000000000040da00ee
:100440000000fe004440a900000020000000e00081
:100450000300320000002000a00188004440a800f2
:1004600000000600f03fb1000180b1000600350039
:10047000ee03090000000000403fb1000180b10020
:10048000fbff3d001000b000203fb000020035002f
:1004900000800900000000000000060091018800b3
:1004a000800078000000eb0015003700e28040007b
:1004b00032a0b4009101ba00e280400032a0b40042
:1004c0009102ba00e280400032a0b4000002eb00ca
:1004d000472bde00f507b200602ce10004003a0073
:1004e0000059eb008301e900fdff3e0004003700e6
:1004f0006128e100010032000082eb0004000700e7
:100500001101ba000200e000e8ff3a000000060016
:100510003159ba008301e9000c0032002159ba00b8
:100520008301e900080032000400e00003003a0003
:10053000e280400032a0b400f5ff370011d9ba00c4
:100540008301e900faff3a008100e800e180400001
:1005500032a0b400000006000040da000000fe00f7
:020000040000fa
:0200000401f009
:04000c00f9ff0000f8
:020000040000fa
:0200000401f009
:04001000bbff000032
:020000040000fa
:0200000401f009
:040014007fff00006a
:020000040000fa
:10000800ac020000d8080000e8080000f80800006a
:100018000809000018090000ac020000ac0200004a
:10002800ac020000ac020000ac020000a00300001b
:10003800ac020000ac020000ac020000ac02000000
:10004800ac020000ac020000ac020000ac020000f0
:10005800ac020000ac020000ac020000ac020000e0
:1000680036060000ac020000ac020000ac02000042
:10007800ac020000ac020000ac020000ac020000c0
:10008800ac020000ac020000ac020000ac020000b0
:10009800ac020000ac020000ac020000ac020000a0
:1000a800ac020000ac020000ac020000ac02000090
:1000b800ac020000ac020000ac020000ac02000080
:1000c800ac020000ac020000ac020000ac02000070
:1000d800ac020000ac020000ac020000ac02000060
:1000e800ac020000ac020000ac020000ac02000050
:1000f800ac020000ac020000ac020000ac02000040
:10010800ac020000ac020000ac020000ac0200002f
:10011800ac020000ac020000ac020000ac0200001f
:10012800ac020000ac020000ac020000ac0200000f
:10013800ac020000ac020000ac020000ac020000ff
:10014800ac020000ac020000ac020000ac020000ef
:10015800ac020000ac020000ac020000ac020000df
:10016800ac020000ac020000ac020000ac020000cf
:10017800ac020000ac020000ac020000ac020000bf
:10018800ac020000ac020000ac020000ac020000af
:10019800ac020000ac020000ac020000ac0200009f
:1001a800ac020000ac020000ac020000ac0200008f
:1001b800ac020000ac020000ac020000ac0200007f
:1001c800ac020000ac020000ac020000ac0200006f
:1001d800ac020000ac020000ac020000ac0200005f
:1001e800ac020000ac020000ac020000ac0200004f
:0801f800ac020000ac020000a3
:020000040000fa
:10020800ac0200002a0900003a0900004a0900006f
:100218005a0900006a090000ac020000ac020000a4
:10022800ac020000ac020000ac020000a003000019
:10023800ac020000ac020000ac020000ac020000fe
:10024800ac020000ac020000ac020000ac020000ee
:10025800ac020000ac020000ac020000ac020000de
:1002680036060000ac020000ac020000ac02000040
:10027800ac020000ac020000ac020000ac020000be
:10028800ac020000ac020000ac020000ac020000ae
:10029800ac020000ac020000ac020000ac0200009e
:1002a800ac020000ac020000ac020000ac0200008e
:1002b800ac020000ac020000ac020000ac0200007e
:1002c800ac020000ac020000ac020000ac0200006e
:1002d800ac020000ac020000ac020000ac0200005e
:1002e800ac020000ac020000ac020000ac0200004e
:1002f800ac020000ac020000ac020000ac0200003e
:10030800ac020000ac020000ac020000ac0200002d
:10031800ac020000ac020000ac020000ac0200001d
:10032800ac020000ac020000ac020000ac0200000d
:10033800ac020000ac020000ac020000ac020000fd
:10034800ac020000ac020000ac020000ac020000ed
:10035800ac020000ac020000ac020000ac020000dd
:10036800ac020000ac020000ac020000ac020000cd
:10037800ac020000ac020000ac020000ac020000bd
:10038800ac020000ac020000ac020000ac020000ad
:10039800ac020000ac020000ac020000ac0200009d
:1003a800ac020000ac020000ac020000ac0200008d
:1003b800ac020000ac020000ac020000ac0200007d
:1003c800ac020000ac020000ac020000ac0200006d
:1003d800ac020000ac020000ac020000ac0200005d
:1003e800ac020000ac020000ac020000ac0200004d
:0803f800ac020000ac020000a1
:020000040000fa
:100560000400fa00b200070033010700830007000f
:100570000b01070059000700c1000700af01070089
:100580000040eb00610107000040eb00850107001f
:1005900000003700404680000000e00016003200f6
:1005a000204d80000000e00013003200c4c2bf00f4
:1005b0000080fb004400de000004a20061406000f7
:1005c0006140600061406000614060004401dd0006
:1005d000412c200091407800f0ceb30000c06000b4
:1005e00002407000c4e2b7000000eb00204d88001c
:1005f0000000eb00404688000040eb00f5000700db
:10060000c400de00a08c20000108780010c0b300f8
:10061000f0000700c400de00a08c2000110098004c
:1006200040c0b300eb000700c400de00a08c200037
:100630002100980050c0b300e6000700c400de00af
:10064000a08c2000310098009600a900a08c20000a
:100650001000780020e8b700a08c20001000900067
:1006600024e8b700a08c20002000900028e8b70004
:10067000a08c2000300090002ce8b7009600a80065
:1006800061c8bf000004e000080032009600a90025
:1006900060c8bf00004f78000040eb0061e8b70081
:1006a0009600a8001e4078001801070065c8bf002a
:1006b0000004e000b7ff32009600a90064c8bf0044
:1006c000004f78000040eb0065e8b7009600a800f6
:1006d0001e40780033010700aeff37000000fa002b
:1006e0000000eb00200888008460a900510a200067
:1006f00091407800f0c8b30000c0600001c4b300ae
:1007000001407000a5e0b7009460a800f0ff23004e
:10071000100888004110200091407800f0ccb30010
:1007200000c0600001c2b3000140700004e1b700e6
:100730000421a90005e1a8000080fa0000000600dd
:10074000801f78003400f80000002000a00188001d
:100750000000fa001000200040468800204d800074
:100760000000e800204d88008460a9000080fa00a5
:100770003400f9004f007800004006000000fa0045
:10078000c882a800c8a2a800c169200091407800d2
:1007900000ceb30000c060000024a0009ce6b700bb
:1007a000d16920009140780000ceb30000c0600005
:1007b0005040b3009de6b700c8c2a800c8e2a80038
:1007c000016a20009140780000ceb30000c06000b4
:1007d0006040b300a0e6b700116a200091407800a5
:1007e00000ceb30000c060007040b300a1e6b700c7
:1007f0000000eb00000f8800e1c1bf007040b300b3
:10080000e1e1b7000000eb00800f8800f1c1bf00fc
:100810007040b300f1e1b7000000eb00200f88004a
:100820000000eb00a00f88000080fa000000060026
:100830000000fa000000eb00201688000080eb00aa
:1008400000168800c082a900cde2a900c9e2a90073
:10085000cdc2a900c9c2a900cda2a900c9a2a90000
:10086000cd82a900c982a900cd62a900c962a900f0
:10087000cd42a900c942a9000080fa00000006008c
:100880000000fa00411820009140780080cfb300aa
:1008900000c0600084e1b70040062000100c880012
:1008a000800c2000000c88008461a9004006200014
:1008b000100c8800411820009140780080cfb300d0
:1008c00000c060006040b30084e1b700f16c20001c
:1008d0009140780000ceb30000c060002041b3001a
:1008e000cfe6b700a11820009140780080cfb30078
:1008f00000c060008ae1b70040062000400c88007c
:10090000800c2000300c88008a61a900400620007d
:10091000400c8800a11820009140780080cfb300df
:1009200000c060006040b3008ae1b700c16c2000e5
:100930009140780000ceb30000c060003041b300a9
:10094000cce6b70011e1a9001021a90010c1a9004f
:100950000111200091407800f0ccb30000c060008d
:1009600010e1b7000000eb0030088800401f2000b5
:1009700060088800710a200091407800f0c8b30038
:1009800000c060000044a000a7e0b70084e0a90018
:1009900094e0a90011e1a8000080fa000000060020
:1009a0000000fa002143a90020c3bf007f4060007f
:1009b00020e3b7002043a900a0c0b30024e3b700a0
:1009c000c00c20006019880021e3a8000080fa0014
:1009d000000006000800fa00604798006e40900092
:1009e0007f4060007f4160008132200091407800ac
:1009f00000ceb30000c060000240700028e3b700e2
:100a00002023a80080bb20000100200095fe0700e5
:100a10002023a90020c3bf00614060000004e00063
:100a2000fcff320000188000200798002e00900084
:100a30000080fa00000006000200fa000000eb004f
:100a4000000f78000000eb00000f78001400370062
:100a50001e007800c200dd00008020008080400081
:100a60000040eb00804878001e007800c200dd00e6
:100a700000802000808040000040eb009040980003
:100a80001e0078004200dd008080e8000080200029
:100a90008080400010002000800878001e0fe800d1
:100aa000100320009e0f1000e9ff36008001200097
:100ab000000f7800080037001e0078004200dd00bb
:100ac0008080e80000802000808040000000eb0073
:100ad000800878001e0fe800100320009e0f100011
:100ae000f5ff360010c0b30000e8b7000040eb008f
:100af00004e8b70040c0b30008e8b70080c0b30006
:100b00000ce8b7000080fa00000006000200fa00be
:100b1000004f780040c6b3009e4f10000300340021
:100b200040c6b300004f780005003700c0c9b300cd
:100b30009e4f100002003d00c0c9b300004f780076
:100b40001e04e00007003d00cda2a800cdc2a90010
:100b50009e00fb000080eb000088b900004f780089
:100b6000070037001e04e00003003400cda2a900f6
:100b7000cdc2a80002003700cda2a800cdc2a800b7
:100b80009e00fb00600880000088b900420620003b
:100b9000110009000280d800000c88000080fa00d3
:100ba000000006000200fa00004f780040c6b300c3
:100bb0009e4f10000300340040c6b300004f780081
:100bc00005003700c0c9b3009e4f100002003d0071
:100bd000c0c9b300004f78001e04e00007003d00cc
:100be000cd42a800cd62a9009e00fb000080eb0072
:100bf0000088b900004f7800070037001e04e000ad
:100c000003003400cd42a900cd62a80002003700e5
:100c1000cd42a800cd62a8009e00fb0060088000c5
:100c20000088b90042062000110009000280d800a7
:100c3000300c88000080fa00000006000000fa0076
:100c4000000028003010880080022000501088002a
:100c50000000eb0030048800d808a900d828a900bb
:100c60009600a8000080fa00000006003600f80098
:100c7000809fbe00829fbe00849fbe00869fbe00f4
:100c80000200fa0008c2bf00644060000004e000f7
:100c900009003a0008c2bf000042b2000004e000b0
:100ca00005003a00001080008040780010c0b300ba
:100cb000a30007003500370008c2bf006440600091
:100cc0000004e00009003a0008c2bf000042b20080
:100cd0000004e00005003200001080008040780031
:100ce0000040eb00960007002800370008c2bf0054
:100cf000644060000004e0001700320008c2bf003a
:100d00000042b2000004e00013003a00001080002e
:100d1000004f7800250007000000eb009046880097
:100d200091468000908d20000080400010407800a7
:100d30000080fb00101088000100e8009046880049
:100d40000782a80008c2bf00614060000004e00004
:100d5000fcff3a000d00370091468000908d200086
:100d600000804000104078000080fb0010108800d8
:100d70000100e800904688000782a80008c2bf0072
:100d8000614060000004e000fcff3a008600a9001a
:100d90000080fa004f03be004f02be004f01be00ac
:100da0004f00be003600f900004006000a00fa00bd
:100db0000000eb00400798000040eb0060479800ff
:100dc0000000eb002007980008c8bf0020479800eb
:100dd0000000eb00400798004d0037002e409000c7
:100de000e44f500017003a00210f8000010f7800f7
:100df0000000eb00200f88002e4090008080fb0058
:100e00001e0078004800de0000417800c208dd00c6
:100e10000080200000804000024878002e409000b2
:100e20000080fb008000e8001e0078000041780090
:100e3000c208dd00008020000080400002487800e9
:100e4000190037002e409000e64f500016003a007f
:100e5000a00f8000000f78000000eb00a00f8800ba
:100e60002e4090008080fb001e0078004800de00cd
:100e700000417800c208dd000080200000804000b2
:100e8000024878002e4090000080fb008000e800bf
:100e90001e00780000417800c208dd0000802000bc
:100ea00000804000024878002e0190002e40900003
:100eb0000080fb00c200dd000080200000804000b8
:100ec00090407800908d200000004100014878009b
:100ed000ae009000908d200000804000904078008f
:100ee0006e40900001404000604798002e00900046
:100ef0000000e800200798002e4090000040e80025
:100f0000204798004e0090000000e800400798003d
:100f10000cc8bf008080fb004e009000808f500006
:100f2000aeff3e002e009000918d20000100400099
:100f3000ee409000014878000080fa0000000600b2
:100f40000400fa00004f7800114798001e04e000ea
:100f5000070032000040eb00d7e8b7000040eb008c
:100f6000d6e8b7000040eb00d5e8b70062003700d4
:100f7000d7c8bf000080fb00100798001e0090003b
:100f8000e10f5000280032009e009000e18f5000d9
:100f900004003c001e0090000000e0000800320049
:100fa000550037009e009000e28f50003000320064
:100fb0001e009000e30f5000460032004e00370044
:100fc0001e409000d9e8b7001e409000d4e8b7005a
:100fd0000040eb00d5e8b700418d2000914078003b
:100fe00080ccb30080cf50000200360040c0b30078
:100ff000d7e8b700d4c8bf00e24f500002003e005f
:1010000040c0b300d7e8b70010c0b300d7e8b700be
:10101000618d2000914078001e40900000c040008b
:10102000d6e8b70034003700d5c8bf000080fb0009
:101030008000e800908d2000008040009e409000dd
:1010400001487800d5c8bf000040e800d5e8b700e7
:1010500020c0b300d7e8b700618d20009140780030
:101060001e40900000c04000d6e8b70022003700c4
:10107000d5c8bf000080fb008000e800908d2000f4
:10108000008040009e40900001487800d5c8bf0015
:101090000040e800d5e8b700d5c8bf008080fb005d
:1010a000d4c8bf000080fb000000e900808f500022
:1010b0001100350030c0b300d7e8b700618d2000c3
:1010c000914078001e40900000c04000d6e8b70074
:1010d00009003700618d2000914078001e4090008b
:1010e000814f500002003a0005000700020037005f
:1010f00040c0b300d7e8b7000080fa000000060047
:101100000400fa000000eb0010079800dac8bf00e6
:10111000004f78000000eb00100798001b0037001c
:101120001e80fb004200dd008080e800008020007f
:1011300000804000100078000000e00010003a003d
:101140009e81fb001e0090008080e800908d2000b2
:101150000080400010417800c218dd0000802000af
:1011600000804000024878001e80fb00c200dd00c5
:10117000008020008080400010c0b30090409800a4
:101180001e0090000000e80010079800d9c8bf00ba
:101190000080fb000080e900800078001e009000c5
:1011a000808f5000deff3e000080fa000000060045
:1011b0003400f800881f780008002000a80188008b
:1011c0004f0478000000fa008020a900ffff3700dc
:1011d0003400f800881f780008002000a80188006b
:1011e0004f0478000000fa008060a900ffff37007c
:1011f0003400f800881f780008002000a80188004b
:101200004f0478000000fa008040a900ffff37007b
:101210003400f800881f780008002000a80188002a
:101220004f0478000000fa008080a900ffff37001b
:10123000801f78003400f80000002000a001880022
:101240000000fa000000eb00001f880080a0a90049
:10125000ffff37003400f800881f780008002000e6
:10126000a80188004f0478000000fa008020a9003f
:10127000ffff37003400f800881f780008002000c6
:10128000a80188004f0478000000fa008060a900df
:10129000ffff37003400f800881f780008002000a6
:1012a000a80188004f0478000000fa008040a900df
:1012b000ffff37003400f800881f78000800200086
:1012c000a80188004f0478000000fa008080a9007f
:1012d000ffff3700801f78003400f8000000200076
:1012e000a00188000000fa000000eb00001f880049
:0812f00080a0a900ffff3700f8
:020000040000fa
:1012f800a409000002000000020000000000000035
:1013080000080000d200000000000000d208000021
:0c131800d20000000000000000000000f7
:00000001FF
